:02000000FB2AD9
:06000600000000000800EC
:10000C000F3083120313FC004730FD00FD0B0C284E
:0A001C00FC0B0C2800000000080097
:0E002600213083120313FD00FD0B1728080084
:10003400710DF80DF90D7408F8027508031C750F9D
:10004400F902F00DF10D0F30FC00710DF80DF90DF2
:100054007408701C3328F8027508031C750FF90224
:100064003828F80775080318750FF907F00DF10D16
:10007400FC0B2728701844287408F807750803181F
:08008400750FF90700000800E8
:10008C0083120313CB1B4C2888114D2888154B1B4E
:10009C005128081152280815CB1A562888105728B1
:1000AC0088144B1A5B2808105C2808143618602832
:1000BC00081661280812881603208812CB196828A4
:1000CC008811692888154B196D2808116E28081598
:1000DC00CB1872288810732888144B1877280810AE
:1000EC007828081436187C2808167D2808128816DB
:1000FC0003208812361C842806208528132008002B
:10010C00831203137408003A031D95287508003AEE
:10011C00031D9528FF30F0007F30F100EE2883128C
:10012C000313FD01F901F80171087004031900347F
:10013C0071087506FA00FA1BFD09FB01F51FAB28C7
:10014C00F409F509F40A0319F50AF11FB228F009AC
:10015C00F109F00A0319F10A71087504FA00FA1B87
:10016C00C7281A207B18DA28FD1F0034F009F10982
:10017C00F00A0319F10AF809F909F80A0319F90A3E
:10018C000034F51FD628F11BD2287108F90070082D
:10019C00F800F101F001BA28F101F001F00A003485
:1001AC00F109F009FB0AB728F80A0319F90A7408CF
:1001BC007802031DBA2875087902031DBA28F901C3
:1001CC00F801F00A0319F10AF11FBA280000FF34F4
:0201DC00080019
:1001DE0083120313C601C801C9011030CA000430CE
:1001EE00490203181B29F03086004A09831686003F
:1001FE00032003200F3083120605F0007008C7009D
:10020E007008031915294808C60047080319132951
:10021E00C70CC713C60A0C290430C900CA0D4A10F0
:0E022E000430C807C90AF6284608F000080088
:10023C008312031336104608CB00462036140800F0
:10024C0083120313F801F9011030FC00710DF80D45
:10025C00F90D7408F8027508031C750FF9020318E0
:10026C003E297408F80775080318750FF907031071
:0A027C00F00DF10DFC0B2C29080019
:0E028600831203133F088A003E08820008001E
:10029400063083120313FD00FD0B4E2900000800F5
:1002A4000A3083120313F4000030F5004008F00014
:1002B4004108F10086207808F0007908F100700800
:1002C400C2007108C3000A30F4000030F500400891
:1002D400F0004108F10086200A30F4000030F500F7
:1002E40086207808F0007908F1007008C4007108CD
:1002F400C5006430F4000030F5004008F000410807
:10030400F1008620091489100911D730F007033051
:100314000318013EF1077008BE007108BF004321B5
:100324008A110A1287008230FC00DD30FD00FD0BCB
:100334009929FC0B9929000000000910891409115E
:100344004408D73EF00003300318013E4507F1008E
:100354007008BE007108BF0043218A110A12870089
:100364008230FC00DD30FD00FD0BB629FC0BB62904
:10037400000000000910891009154208D73EF0005A
:1003840003300318013E4307F1007008BE007108F2
:10039400BF0043218A110A1287008230FC00DD303D
:1003A400FD00FD0BD329FC0BD3290000000008003D
:1003B400EC29803083120313C000FF29C030C00031
:1003C400FF299430C000FF29D430C000FF298030B9
:1003D400C000FF29831203134008013A0319DB29E3
:1003E4004008023A0319E0294008033A0319E329B3
:1003F4004008043A0319E629E9294103F0004008BA
:10040400F0077008C00036147008CB004620361080
:0A0414004208CB0046203614080011
:10041E0083120313C3010530430203181D2A430838
:10042E004207840020308000C30A122A4308420784
:10043E0084008001C30343084207C4000A30F4005D
:10044E00F5014008F0004108F10026217808F0007F
:10045E007908F1003030F0074408840070088000FD
:10046E000A30F400F5014008F0004108F1002621A1
:10047E007008C0007108C10000307106031D492AC2
:10048E0000307006031D4C2A4E2AC303222A080090
:10049E00EF207008C0000F300605F0000319592A2E
:0A04AE004A21522A4008F00008001D
:1004B800831603138812081208108810081188116F
:1004C8008312881208128811081188100810062053
:1004D800062006208814081488160320881206208F
:1004E8008816032088120620881603208812062002
:1004F8000810881603208812062088160320881200
:100508008810881588160320881206208811081478
:1005180088160320881208108816032088120620DF
:1005280088160320881208148816032088120620CB
:1005380008108816032088128815081588140814CE
:0C054800881603208812062036140800D4
:1005540043218A110A128000840ABE0A0319BF0AC1
:08056400F003031DAA2A0800A0
:10056C00C82A803083120313C000DB2AC030C000BD
:10057C00DB2A9430C000DB2AD430C000DB2A803068
:10058C00C000DB2A831203134008013A0319B72A6F
:10059C004008023A0319BC2A4008033A0319BF2A3F
:1005AC004008043A0319C22AC52A4103F000400846
:1005BC00F0077008C0007008CB0046203610C3014D
:1005CC0043084207840000080319F42A4308420731
:1005DC0084000008C6001E21C30AE62A361408004F
:0A05EC00FF30831603138600080099
:1005F60083120313A0012030A1002030A200203076
:10060600A300A4013130A500A6015430A70069302B
:10061600A8006D30A9006530AA007330AB00203009
:10062600AC003A30AD00AE014B30AF006530B000E3
:100636007930B1002030B2003A30B300B401BD01C8
:10064600F6228701831287018316890183128901A5
:1006560083160317880189015C220130CB004620EE
:100666000C30CB0046200130C0000130C1002530DF
:10067600C200B6220130C0000130C1002F30C200D6
:10068600B6220230C0000130C1002730C200B622B7
:10069600B5013D08C000C10152214F227008B500C6
:1006A600700803194C2B7B2B3130B500AB2B323045
:1006B600B500AB2B3330B500AB2B3430B500AB2BCC
:1006C6003530B500AB2B3630B500AB2B3730B50027
:1006D600AB2B3830B500AB2B3930B500AB2B2A30FD
:1006E600B500AB2B3030B500AB2B2330B500AB2BB0
:1006F6003508013A0319572B3508023A03195A2BC4
:100706003508033A03195D2B3508053A0319602BA2
:100716003508063A0319632B3508073A0319662B81
:100726003508093A0319692B35080A3A03196C2B5F
:1007360035080B3A03196F2B35080D3A0319722B3E
:1007460035080E3A0319752B35080F3A0319782B1D
:10075600350820060319B42B0130BD003508A0006A
:10076600B52BBD0A0130C0000A30C1003508C200F1
:10077600DA213D08FF3A031DC82BBD010230C00037
:100786000A30C1002130C200B6223D08C000C101B6
:100796003730C2000F220230C0000A30C1003730A5
:0807A600C200B6224B2BD62B3A
:1007AE003F3406345B344F3466346D347D34073455
:0407BE007F346F34E1
:04400E00F22F000786
:00000001FF
